:020000040800F2
:1000000000000220E924000821210008292100081D
:1000100031210008392100084121000800000000BA
:10002000000000000000000000000000492100085E
:100030005721000800000000652100087321000816
:100040003925000839250008392500083925000818
:100050003925000839250008392500083925000808
:1000600039250008392500083925000839250008F8
:1000700039250008392500083925000839250008E8
:10008000392500083925000839250008000000003E
:1000900000000000000000000000000039250008FA
:1000A00039250008392500083925000839250008B8
:1000B0003925000881210008392500083925000864
:1000C0003925000839250008392500083925000898
:1000D00039250008392500083925000800000000EE
:1000E0009521000839250008392500080000000086
:1000F000000000000000000000000000392500089A
:1001000000000000392500083925000839250008BD
:1001100000000000000000000000000000000000DF
:100120003925000839250008392500083925000837
:100130003925000800000000000000000000000059
:10014000000000000000000000000000AD210008D9
:100150003925000839250008392500083925000807
:1001600039250008392500080000000000000000C3
:10017000000000000000000000000000000000007F
:100180000000000039250008000000000000000009
:0801900039250008392500089B
:1001A00010B5054C237833B9044B13B10448AFF3B1
:1001B00000800123237010BDC40200200000000055
:1001C00040E0000808B5034B1BB103490348AFF3F7
:1001D000008008BD00000000C802002040E00008C8
:1001E00010F8012B11F8013B012A28BF9A42F7D0E1
:1001F000D01A70470000000000000000000000005E
:1002000001F0FF01102A2BDB10F0070F08D010F8C7
:10021000013B013A8B422DD010F0070F42B3F6D1CB
:10022000F0B441EA012141EA014122F007047FF0E4
:1002300000070023F0E80256083C85EA010586EA3B
:10024000010685FA47F5A3FA87F586FA47F6A5FA77
:1002500087F68EB9EED1F0BC01F0FF0102F0070283
:1002600032B110F8013B013A83EA010313B1F8D12E
:100270000020704701387047002D06BF354603380F
:10028000073815F0010F07D1013015F4807F02BF48
:10029000013015F4C03F0130F0BC0138704700BF99
:1002A000034613F8012B002AFBD1181A01387047B6
:1002B00081F0004102E000BF83F0004330B54FEA17
:1002C00041044FEA430594EA050F08BF90EA020F84
:1002D0001FBF54EA000C55EA020C7FEA645C7FEA17
:1002E000655C00F0E2804FEA5454D4EB5555B8BF3A
:1002F0006D420CDD2C4480EA020281EA030382EAAB
:10030000000083EA010180EA020281EA0303362D3C
:1003100088BF30BD11F0004F4FEA01314FF4801C0F
:100320004CEA113102D0404261EB410113F0004F21
:100330004FEA03334CEA133302D0524263EB4303D8
:1003400094EA050F00F0A780A4F10104D5F1200E76
:100350000DDB02FA0EFC22FA05F2801841F10001D1
:1003600003FA0EF2801843FA05F359410EE0A5F1A5
:1003700020050EF1200E012A03FA0EFC28BF4CF0D6
:10038000020C43FA05F3C01851EBE37101F000458C
:1003900007D54FF0000EDCF1000C7EEB00006EEB99
:1003A0000101B1F5801F1BD3B1F5001F0CD3490823
:1003B0005FEA30004FEA3C0C04F101044FEA44527A
:1003C00012F5800F80F09A80BCF1004F08BF5FEA01
:1003D000500C50F1000041EB045141EA050130BDE1
:1003E0005FEA4C0C404141EB0101013C28BFB1F5F3
:1003F000801FE9D291F0000F04BF01460020B1FA3E
:1004000081F308BF2033A3F10B03B3F120020CDA10
:100410000C3208DD02F1140CC2F10C0201FA0CF0EE
:1004200021FA02F10CE002F11402D8BFC2F1200C53
:1004300001FA02F120FA0CFCDCBF41EA0C01904009
:10044000E41AA2BF01EB0451294330BD6FEA040452
:100450001F3C1CDA0C340EDC04F11404C4F120023D
:1004600020FA04F001FA02F340EA030021FA04F34F
:1004700045EA030130BDC4F10C04C4F1200220FAA6
:1004800002F001FA04F340EA0300294630BD21FAE4
:1004900004F0294630BD94F0000F83F4801306BFAA
:1004A00081F480110134013D4EE77FEA645C18BF9E
:1004B0007FEA655C29D094EA050F08BF90EA020F35
:1004C00005D054EA000C04BF1946104630BD91EA2D
:1004D000030F1EBF0021002030BD5FEA545C05D130
:1004E0004000494128BF41F0004130BD14F580046F
:1004F0003CBF01F5801130BD01F0004545F0FE41E3
:1005000041F470014FF0000030BD7FEA645C1ABF17
:10051000194610467FEA655C1CBF0B46024650EA4E
:10052000013406BF52EA033591EA030F41F400217A
:1005300030BD00BF90F0000F04BF0021704730B500
:100540004FF4806404F132044FF000054FF00001D5
:1005500050E700BF90F0000F04BF0021704730B596
:100560004FF4806404F1320410F0004548BF40426B
:100570004FF000013EE700BF42004FEAE2014FEAC0
:1005800031014FEA02701FBF12F07F4393F07F4F9B
:1005900081F06051704732F07F4208BF704793F09E
:1005A0007F4F04BF41F40021704730B54FF46074B1
:1005B00001F0004521F000411CE700BF50EA0102B4
:1005C00008BF704730B54FF000050AE050EA01025D
:1005D00008BF704730B511F0004502D5404261EBCD
:1005E00041014FF4806404F132045FEA915C3FF40E
:1005F000D8AE4FF003025FEADC0C18BF03325FEAAB
:10060000DC0C18BF033202EBDC02C2F1200300FA5B
:1006100003FC20FA02F001FA03FE40EA0E0021FA80
:1006200002F11444BDE600BF70B54FF0FF0C4CF46E
:10063000E06C1CEA11541DBF1CEA135594EA0C0F20
:1006400095EA0C0F00F0DEF82C4481EA030621EA5B
:100650004C5123EA4C5350EA013518BF52EA033596
:1006600041F4801143F4801338D0A0FB02CE4FF048
:100670000005E1FB02E506F00042E0FB03E54FF078
:100680000006E1FB03569CF0000F18BF4EF0010E70
:10069000A4F1FF04B6F5007F64F5407404D25FEA6C
:1006A0004E0E6D4146EB060642EAC62141EA55511F
:1006B0004FEAC52040EA5E504FEACE2EB4F1FD0C61
:1006C00088BFBCF5E06F1ED8BEF1004F08BF5FEADF
:1006D000500E50F1000041EB045170BD06F0004691
:1006E00046EA010140EA020081EA0301B4EB5C043E
:1006F000C2BFD4EB0C0541EA045170BD41F4801136
:100700004FF0000E013C00F3AB8014F1360FDEBF5A
:10071000002001F0004170BDC4F10004203C35DA36
:100720000C341BDC04F11404C4F1200500FA05F3B9
:1007300020FA04F001FA05F240EA020001F000425A
:1007400021F0004110EBD37021FA04F642EB0601D0
:100750005EEA430E08BF20EAD37070BDC4F10C04FA
:10076000C4F1200500FA04F320FA05F001FA04F2BE
:1007700040EA020001F0004110EBD37041F10001AA
:100780005EEA430E08BF20EAD37070BDC4F12005B5
:1007900000FA05F24EEA020E20FA04F301FA05F21D
:1007A00043EA020321FA04F001F0004121FA04F2C5
:1007B00020EA020000EBD3705EEA430E08BF20EA95
:1007C000D37070BD94F0000F0FD101F000464000CF
:1007D00041EB010111F4801F08BF013CF7D041EA51
:1007E000060195F0000F18BF704703F00046520055
:1007F00043EB030313F4801F08BF013DF7D043EA26
:100800000603704794EA0C0F0CEA135518BF95EADB
:100810000C0F0CD050EA410618BF52EA4306D1D162
:1008200081EA030101F000414FF0000070BD50EA81
:10083000410606BF1046194652EA430619D094EA0B
:100840000C0F02D150EA013613D195EA0C0F05D1F5
:1008500052EA03361CBF104619460AD181EA030149
:1008600001F0004141F0FE4141F470014FF0000001
:1008700070BD41F0FE4141F4780170BD70B54FF09C
:10088000FF0C4CF4E06C1CEA11541DBF1CEA13551C
:1008900094EA0C0F95EA0C0F00F0A7F8A4EB0504FE
:1008A00081EA030E52EA03354FEA013100F08880F5
:1008B0004FEA03334FF0805545EA131343EA1263BE
:1008C0004FEA022245EA111545EA10654FEA002673
:1008D0000EF000419D4208BF964244F1FD0404F52C
:1008E000407402D25B084FEA3202B61A65EB030588
:1008F0005B084FEA32024FF480104FF4002CB6EB45
:10090000020E75EB030E22BFB61A754640EA0C00C4
:100910005B084FEA3202B6EB020E75EB030E22BF04
:10092000B61A754640EA5C005B084FEA3202B6EB45
:10093000020E75EB030E22BFB61A754640EA9C0004
:100940005B084FEA3202B6EB020E75EB030E22BFD4
:10095000B61A754640EADC0055EA060E18D04FEA92
:10096000051545EA16754FEA06164FEAC30343EA32
:1009700052734FEAC2025FEA1C1CC0D111F4801FFF
:100980000BD141EA00014FF000004FF0004CB6E7F8
:1009900011F4801F04BF01430020B4F1FD0C88BF97
:1009A000BCF5E06F3FF6AFAEB5EB030C04BFB6EBA2
:1009B000020C5FEA500C50F1000041EB045170BD95
:1009C0000EF0004E4EEA113114EB5C04C2BFD4EBC2
:1009D0000C0541EA045170BD41F480114FF0000E46
:1009E000013C90E645EA060E8DE60CEA135594EAC2
:1009F0000C0F08BF95EA0C0F3FF43BAF94EA0C0FC5
:100A00000AD150EA01347FF434AF95EA0C0F7FF439
:100A100025AF104619462CE795EA0C0F06D152EA8D
:100A200003353FF4FDAE1046194622E750EA410671
:100A300018BF52EA43067FF4C5AE50EA41047FF482
:100A40000DAF52EA43057FF4EBAE12E74FF0FF3CE7
:100A500006E000BF4FF0010C02E000BF4FF0010CB8
:100A60004DF804CD4FEA410C7FEA6C5C4FEA430C31
:100A700018BF7FEA6C5C1BD001B050EA410C0CBF80
:100A800052EA430C91EA030F02BF90EA020F0020E2
:100A9000704710F1000F91EA030F58BF994208BF49
:100AA00090422CBFD8176FEAE37040F00100704706
:100AB0004FEA410C7FEA6C5C02D150EA013C07D15D
:100AC0004FEA430C7FEA6C5CD6D152EA033CD3D0A8
:100AD0005DF8040B704700BF8446104662468C46A2
:100AE0001946634600E000BF01B5FFF7B7FF0028D5
:100AF00048BF10F1000F01BD4DF808EDFFF7F4FFFE
:100B00000CBF012000205DF808FB00BF4DF808ED88
:100B1000FFF7EAFF34BF012000205DF808FB00BFAB
:100B20004DF808EDFFF7E0FF94BF012000205DF8CD
:100B300008FB00BF4DF808EDFFF7CEFF94BF012082
:100B400000205DF808FB00BF4DF808EDFFF7C4FF7B
:100B500034BF012000205DF808FB00BF4FEA410CC4
:100B60007FEA6C5C02D150EA013C0AD14FEA430CA7
:100B70007FEA6C5C02D152EA033C02D14FF00000E4
:100B800070474FF0010070474FEA410212F5001222
:100B900015D211D56FF47873B3EB625212D94FEAC4
:100BA000C12343F0004343EA505311F0004F23FAAE
:100BB00002F018BF404270474FF00000704750EA03
:100BC000013005D111F0004008BF6FF000407047C0
:100BD0004FF00000704700BF4A0011D212F500121A
:100BE00011D20DD56FF47873B3EB62520ED44FEA85
:100BF000C12343F0004343EA505323FA02F0704705
:100C00004FF00000704750EA013002D14FF0FF3042
:100C100070474FF0000070474FEA4102B2F1E043E5
:100C200024BFB3F5001CDCF1FE5C0DD901F0004CD3
:100C30004FEAC0024CEA5070B2F1004F40EB830023
:100C400008BF20F00100704711F0804F21D113F14F
:100C50003872BCBF01F00040704741F480114FEA88
:100C60005252C2F11802C2F1200C10FA0CF320FA11
:100C700002F018BF40F001004FEAC1234FEAD3232E
:100C800003FA0CFC40EA0C0023FA02F34FEA430398
:100C9000CCE77FEA625307D150EA01331EBF4FF021
:100CA000FE4040F44000704701F0004040F0FE403C
:100CB00040F40000704700BF53B94AB9002908BF8B
:100CC00000281CBF4FF0FF314FF0FF3000F0BEB9DD
:100CD000ADF1080C6DE904CE00F03CF8DDF804E05D
:100CE000DDE9022304B0704738B500220023044632
:100CF0000D46FFF70BFF28B920462946BDE83840CE
:100D000000F00AB8204605F1004100F005F8404225
:100D100061EB410138BD00BFD0B50C4B0022064647
:100D20000F46FFF781FCFFF757FF0446FFF702FC71
:100D3000074B0022FFF778FC02460B463046394647
:100D4000FFF7BAFAFFF748FF2146D0BD0000F03D9B
:100D50000000F0412DE9F047089D8E460446884684
:100D6000002B4AD18A42174662D9B2FA82F64EB1B6
:100D7000C6F1200301FA06F820FA03F3B74043EA6C
:100D80000808B4404FEA174E1FFA87FCB8FBFEF183
:100D9000230C0EFB118843EA084301FB0CF29A4234
:100DA00009D9FB1801F1FF3080F0EA809A4240F245
:100DB000E78002393B449A1AA3B2B2FBFEF00EFB65
:100DC000102243EA024300FB0CFC9C4509D9FB18A6
:100DD00000F1FF3280F0D6809C4540F2D3803B4446
:100DE000023840EA0140A3EB0C0300211DB1F3409F
:100DF0000022C5E90032BDE8F0878B4205D90DB16C
:100E0000C5E9000100210846F5E7B3FA83F100299E
:100E100046D1734502D3824200F20581841A6EEBFB
:100E2000030201209046002DE5D0C5E90048E2E725
:100E3000002A00F09080B2FA82F6002E40F0A480E2
:100E40008A1A030C4FEA174E80B2BCB20121B2FBE2
:100E5000FEFC0EFB1C2243EA024304FB0CF29A4206
:100E600007D9FB180CF1FF3802D29A4200F2E08059
:100E7000C4469B1AB3FBFEF20EFB123340EA034357
:100E800002FB04F49C4207D9FB1802F1FF3002D2A6
:100E90009C4200F2CA8002461B1B42EA0C40A5E7B6
:100EA000C1F120068B4022FA06F71F430EFA01F427
:100EB00020FA06F32EFA06FE4FEA1749234300FAFA
:100EC00001F81FFA87FCBEFBF9F01C0C09FB10EEC1
:100ED00044EA0E4400FB0CFEA64502FA01F209D9D1
:100EE0003C1900F1FF3A80F09C80A64540F29980C1
:100EF00002383C44A4EB0E041FFA83FEB4FBF9F362
:100F000009FB13444EEA044403FB0CFCA44508D936
:100F10003C1903F1FF3E80F08280A4457FD9023B5B
:100F20003C4443EA0040A4EB0C04A0FB02EC644503
:100F30007346E14662D35FD05DB1B8EB030264EB68
:100F4000090404FA06F622FA01F31E43CC40C5E96F
:100F5000006400214FE7B1FBF2FC010C41EA0E41B5
:100F600080B240EA01423B4638463C46B846BE465F
:100F70002026B1FBF7F1A2EB080241EA0C4166E73B
:100F8000014618E710462CE7C6F120022EFA02F3BC
:100F9000B740B14020FA02F24FEA174E0A43B3FBC2
:100FA000FEF8BCB20EFB1833110C41EA034108FBFA
:100FB00004F9B04089454FEA104380B23ED9791810
:100FC00008F1FF3C01D289451FD8A1EB0901B1FB13
:100FD000FEF909FB04F80EFB191192B242EA014234
:100FE000424529D2BA1809F1FF31C4D24245C2D2D2
:100FF000A9F102013A44BEE7F0459DD2BEEB0203DF
:101000006CEB070C0138E14696E7A7EB0909494468
:10101000A8F1020CB1FBFEF909FB04F8DBE773460B
:101020007FE7504666E70846FDE63B44023A33E771
:10103000ACF1020C3B441CE749469CE7A1EB0901DB
:10104000C446B1FBFEF909FB04F8C4E7704700BFD2
:1010500080B584B000AF786001F0D6FAF8607868A7
:10106000FFF71EF903469BB21946786807F0FCFEAD
:101070000346FB72FB7A012B08D101F0C5FA024648
:10108000FB68D31A092B01D8012300E00023002BB1
:10109000E5D100BF00BF1037BD4680BD80B582B02E
:1010A00000AF78607B681B68044A934202D1044811
:1010B00000F0ACFE00BF0837BD4680BD0004004014
:1010C000E002002080B400AF034B1B78DBB218466F
:1010D000BD465DF8047B7047D003002080B584B026
:1010E00000AF0346FB8001F08FFAF860FB88B3F590
:1010F000804F44D1464B1B68FA68D31A322B40F21A
:1011000082804FF48041434801F044FD0346BB72A6
:10111000FFF7D8FF034683F00103DBB2002B04D0B6
:10112000BB7A002B01D0012300E00023012B0CBF70
:1011300001230023DBB2002B1AD0374B1B78DBB224
:1011400083F00103DBB2002B0ED0344800F01EFE0A
:10115000324800F0C1FB324B01221A70314B0022A1
:101160001A80314B00221A702B4B01221A7002E0B8
:10117000294B00221A70264AFB68136043E0FB8863
:10118000B3F5004F3FD1294B1B68FA68D31A322BB5
:1011900039D94FF400411F4801F0FCFC0346FB72B3
:1011A000FFF790FF0346002B04D0FB7A002B01D001
:1011B000012300E00023012B0CBF01230023DBB23D
:1011C000002B1AD01A4B1B78DBB283F00103DBB281
:1011D000002B0ED0114800F0D9FD104800F07CFB28
:1011E0000F4B01221A700F4B00221A800E4B002267
:1011F0001A700F4B01221A7002E00D4B00221A7078
:101200000A4AFB68136000BF1037BD4680BD00BFAF
:10121000C803002000040240D4030020E0020020A4
:10122000D2030020C4030020D1030020CC030020FF
:10123000D303002080B584B000AF7860396000230C
:10124000FB6034E07A68FB6813441B78FB72FB7A1E
:101250000D2B28D0FB7A0A2B25D0FB7A232B07D124
:10126000174B00221A808022002116480AF023F929
:10127000134B1B887E2B09D8114B1B885A1C91B22B
:101280000F4A118019460F4AFB7A5354FB7A212BDF
:101290000AD10B4B1B881A460A4B002199540A4B62
:1012A00001221A7000E000BFFB680133FB60FA689E
:1012B0003B689A42C6D300BF00BF1037BD4680BD11
:1012C000C403002044030020D103002080B500AFF8
:1012D000064B00221A80064B00221A708022002141
:1012E00004480AF0E8F800BF80BD00BFC403002036
:1012F000D10300204403002080B582B000AF034634
:10130000FB71FB79002B06D0144B1B78DBB2002B52
:1013100001D0012300E00023002B04D01048FFF788
:1013200097FE002315E0FB7983F00103DBB2002B6D
:1013300006D00C4B1B78DBB2002B01D0012300E060
:101340000023002B04D00848FFF782FE002300E0B2
:10135000012318460837BD4680BD00BFD3030020D7
:1013600058E00008D40300208CE0000880B5A8B045
:1013700000AF0023C7F898300023C7F8943000234B
:10138000C7F890300023C7F88C304FF00003C7F83F
:101390009C304FF00003C7F888300023C7F8843032
:1013A000704B1B78232B05D06F48FFF751FEFFF7DA
:1013B0008DFFD4E03B4680226A4918460AF095F832
:1013C0003B460133694918460AF0A2F8C7F898006D
:1013D000664900200AF09CF8C7F894006349002091
:1013E0000AF096F8C7F89000614900200AF090F8DA
:1013F000C7F88C00D7F89830002B0BD0D7F8943072
:10140000002B07D0D7F89030002B03D0D7F88C30C2
:10141000002B05D15748FFF71BFEFFF757FF9EE053
:101420000021D7F8940008F0D1FF87ED270A0021AA
:10143000D7F8900008F0CAFF87ED220AD7F88C0091
:1014400008F0B6F9C7F88400D7F88430B3F1FF3F4D
:101450000BD1494800F09AFC474800F03DFA474854
:10146000FFF7F6FDFFF732FF79E0434800F0C0FCDC
:101470000346002B05D04248FFF7EAFDFFF726FFA1
:101480006DE0D7ED227AF5EEC07AF1EE10FA06D9CA
:10149000D7ED277AF5EE407AF1EE10FA05D139480A
:1014A000FFF7D6FDFFF712FF59E03749D7F898004C
:1014B000FEF796FE0346002B0CBF0123002387F89E
:1014C000833097F8833083F00103DBB2002B0DD01B
:1014D0002E49D7F89800FEF783FE0346002B05D06F
:1014E0002B48FFF7B5FDFFF7F1FE38E097F88330A2
:1014F0001846FFF701FF034683F00103DBB2002B20
:1015000002D0FFF7E3FE2AE097F88330002B07D0E4
:101510000021194800F0B2FA1E4B01221A700CE0AB
:101520000121154800F0AAFA1A4B00221A70D7EDD3
:10153000277AF1EE677AC7ED277A0F4800F0A5F910
:10154000052001F06DF8D7ED220A97ED270A0A4829
:1015500000F0BEFB104B01221A70FFF7B7FEA03758
:10156000BD4680BD44030020C0E00008E4E0000860
:10157000E8E00008ECE00008E002002010E10008CC
:1015800034E1000850E1000868E100086CE100085F
:1015900070E10008D0030020D503002080B584B09E
:1015A00004AF08230293154B019340230093144B7F
:1015B0004FF480621349144800F013F9022300939A
:1015C000104B04220F49104800F02FF910210E484B
:1015D00000F070FA9FED0D0A0B4800F0BDFAB7EE6F
:1015E000040A094800F0CFFA074800F075F90348EB
:1015F00003F0B0F900BFBD4680BD00BFDC03002092
:101600000000024000040240E00200206666E63F5F
:1016100080B58AB000AF1B4B1B78DBB2002B0BD020
:101620003B1D1949184609F0E1FE3B1D1846FFF71E
:101630000FFD144B00221A70144800F0D9FB03462A
:1016400087F82730124B1B78002B0CD097F82730E7
:1016500083F00103DBB2002B05D0322000F0E0FF65
:101660000A4800F039F90A4A97F827301370094BF5
:101670001B78DBB2002B01D0FFF778FE00BF2837C4
:10168000BD4680BDD203002084E10008E0020020B6
:10169000D5030020D103002080B500AF024800F040
:1016A00029F800BF80BD00BFE002002080B500AF78
:1016B000024800F085F800BF80BD00BFE0020020B6
:1016C00080B500AFFFF7E8FF80BD80B500AFFFF742
:1016D000EDFF80BD80B483B000AF87ED010AD7ED88
:1016E000017AF0EEE77AB0EE670A0C37BD465DF896
:1016F000047B704780B483B000AF78607B684FF0A4
:1017000081421A607B684FF4E1325A607B680022A4
:101710001A727B680022DA607B6800221A827B687A
:1017200000225A617B6800221A837B680022DA61FA
:101730007B6800221A847B6800225A627B68002240
:101740001A857B680022DA627B6800221A637B6854
:1017500000225A637B68002283F838207B68174A8E
:10176000DA637B68002283F854207B68032283F8C5
:1017700055207B6800229A657B680022DA657B68C9
:10178000002283F860207B681022A3F862207B6827
:1017900000221A647B6800225A647B6800229A64E3
:1017A0007B680022DA647B6800221A657B68184631
:1017B0000C37BD465DF8047B704700BF6666E63FA8
:1017C00080B582B000AF78607B6893F83830002B2A
:1017D00002D0786800F03DF97B6818460837BD46AE
:1017E00080BD80B485B000AFF860B9603B6013463F
:1017F000FB80FB68BA685A61FB68FA881A83FB6849
:101800003A68DA60FB683A8B1A82FB68FA69DA6236
:10181000FB683A6A1A63FB68012283F8382000BF2C
:101820001437BD465DF8047B704780B584B000AFC7
:10183000F860B9603B601346FB80FB68BA68DA6108
:10184000FB68FA881A84FB683A685A62FB683A8B2C
:101850001A85FB68DB69002B13D0FB685B6A002BE1
:101860000FD0FB68D869FB681B8C0022194601F079
:10187000A9F9FB68586AFB681B8D0022194601F024
:10188000A1F900BF1037BD4680BD80B582B000AF62
:1018900078607B685B69002B0AD07B6858697B683D
:1018A0001B8B0022194601F08DF9012000F0B8FED3
:1018B0007B6893F8553003F00F03D9B27A6892F839
:1018C000483061F3030382F84830786800F0CCFABE
:1018D00000BF0837BD4680BD80B582B000AF7860DC
:1018E0007B685B69002B07D07B6858697B681B8B22
:1018F0000122194601F066F97A6892F8483023F01F
:101900000F0382F84830786800F0AEFA00BF08375D
:10191000BD4680BD80B58AB000AF786039603B6855
:10192000002B74D07B68DB6A002B72D002F0FEFFC4
:1019300038623B6A7B62394B9B6803F4E053002BAF
:1019400014BF01230023DBB2002B02D03B6A5B00F3
:101950007B627B68DB6A1B689B6AFB61FB69013306
:101960007A6AB2FBF3F3BB61BB6907EE903AF8EE1B
:10197000676A3B6807EE903AB8EE677AC6EE877AF8
:10198000B7EE007A77EEC77AC7ED057A97ED050ACC
:1019900007F0EAFEF0EE407AFCEEE77A17EE903AB6
:1019A0003B613B695B08FB607B68DB6A1B683A69EB
:1019B000DA627B68DB6A3A69DA607B681B6B002B52
:1019C00005D17B68DB6A1B68FA685A6318E07B689C
:1019D0001B6B042B05D17B68DB6A1B68FA689A6372
:1019E0000EE07B681B6B082B05D17B68DB6A1B68EC
:1019F000FA68DA6304E07B68DB6A1B68FA681A64D9
:101A00007B68DB6A0121184603F01CFB02E000BF83
:101A100000E000BF2837BD4680BD00BF003802404F
:101A200080B582B000AF78607B68DB6A002B0CD099
:101A30007B68DB6A1B6800225A627B68DA6A7B6813
:101A40001B6B1946104603F037F800BF0837BD4638
:101A500080BD80B582B000AF78607B68DB6A002B08
:101A600008D07B68DA6A7B681B6B1946104603F066
:101A7000D3F800E000BF0837BD4680BD80B483B016
:101A800000AF78600B46FB70FB78002B05D17B68BC
:101A90001A8A7B68DB689A6106E07B681B8A1A46B3
:101AA0007B68DB6812049A6100BF0C37BD465DF8A5
:101AB000047B704780B584B000AF78600B467B80B4
:101AC0007B68DB69002B41D07B685B6A002B3DD0D3
:101AD0007B687A88A3F862200023FB730023BB7322
:101AE0007B88402B19D0402B32DC202B10D0202BB0
:101AF0002EDC082B02D0102B05D029E00023FB732D
:101B00000023BB730EE00123FB730123BB7309E0C9
:101B10000123FB730023BB7304E00023FB73012349
:101B2000BB7300BF7B68D8697B681B8CFA7B194646
:101B300001F048F87B68586A7B681B8DBA7B1946B0
:101B400001F040F8012000F06BFD02E000BF00E072
:101B500000BF1037BD4680BD80B483B000AF786051
:101B600087ED000AD7ED007AF5EEC07AF1EE10FAB3
:101B700000DC02E07B683A68DA6300BF0C37BD46E0
:101B80005DF8047B704780B483B000AF786087ED68
:101B9000000AD7ED007AF5EEC07AF1EE10FA00DC1B
:101BA00002E07B683A681A6000BF0C37BD465DF8FA
:101BB000047B704780B586B000AFF86087ED020AFD
:101BC0000B46FB80FB68D3ED0F7AF5EEC07AF1EEA1
:101BD00010FA38D9D7ED027AF5EEC07AF1EE10FAA4
:101BE00031D4FB88002B2ED0FB881946F868FFF70C
:101BF00061FFFB6893ED0F7ADFED156AC6EE877A19
:101C0000C7ED057A97ED027AD7ED057A27EE277AA8
:101C1000FB8807EE903AF8EE677A27EE277ADFED39
:101C20000D6AC7EE267AC7ED047A97ED040A07F02D
:101C30009BFDF0EE407AFCEEE77A17EE901AF8681A
:101C4000FFF768FE00E000BF1837BD4680BD00BF4B
:101C50000000B4430000704280B584B000AFF8606B
:101C6000B96087ED010ABB68002B2DD0FB68DB6AE9
:101C7000002B29D0F86800F089F8FB68BA689A65EB
:101C8000FB680022DA65FB68B3F86230194697ED0D
:101C9000010AF868FFF78EFFFB68012283F86020D5
:101CA000FB68DB6A1B686FF001021A61FB68DB6A84
:101CB0001B68DA68FB68DB6A1B6842F00102DA60C5
:101CC000F868FFF7ADFE00E000BF1037BD4680BDED
:101CD00080B588B000AFF86087ED020AC7ED010A51
:101CE000D7ED027AF5EE407AF1EE10FA45D0FB68B6
:101CF000D3ED007AF5EEC07AF1EE10FA3FD9FB6829
:101D0000D3ED0F7AF5EEC07AF1EE10FA37D9FB6811
:101D100093ED0F7ADFED1C6AC6EE877AC7ED077A7E
:101D2000FB68B3F8623007EE903AF8EEE77A97ED89
:101D3000077A67EE277AC7ED067A97ED020AFFF772
:101D4000C9FCF0EE406AFB6893ED007AC6EE877A34
:101D5000C7ED057A97ED057AD7ED067A67EE277A13
:101D6000B0EE670A07F0D2FC03463B6197ED010A2B
:101D70003969F868FFF770FF02E000BF00E000BFBC
:101D80002037BD4680BD00BF0000B44380B582B09F
:101D900000AF78607B68DB6A002B0FD07B68DB6A62
:101DA0001B68DA687B68DB6A1B6822F00102DA6074
:101DB0007B68DB6A1B686FF001021A617868FFF7C5
:101DC00048FE7B68DB6A002B04D07B68DB6A1B68FB
:101DD00000225A627B68002283F860207B68002220
:101DE000DA657B6800229A6500BF0837BD4680BD72
:101DF00080B483B000AF78607B6893F86030DBB26A
:101E000018460C37BD465DF8047B704780B582B03C
:101E100000AF78607B6893F86030DBB2002B12D0A3
:101E20007B68DB6D5A1C7B68DA657B68DA6D7B68E2
:101E30009B6D9A422CBF01230023DBB2002B02D002
:101E40007868FFF7A3FF00BF0837BD4680BD80B4A8
:101E500085B000AFF8600B467A60FB7200BF1437A4
:101E6000BD465DF8047B704780B582B000AF7860F6
:101E70007B689B6C1A466C217868FFF7E8FF00BF0F
:101E80000837BD4680BD000080B58AB000AF07F1BD
:101E9000140300221A605A609A60DA601A61002303
:101EA0003B61474B1B6B464A43F004031363444BAF
:101EB0001B6B03F004033B613B690023FB60404B59
:101EC0001B6B3F4A43F0800313633D4B1B6B03F0D6
:101ED0008003FB60FB680023BB60394B1B6B384AF7
:101EE00043F001031363364B1B6B03F00103BB602C
:101EF000BB6800237B60324B1B6B314A43F002030B
:101F000013632F4B1B6B03F002037B607B68012282
:101F10004FF400512B4800F055FE002248F24001DA
:101F2000294800F04FFE002240F20641274800F009
:101F300049FE4FF400537B610123BB610023FB6129
:101F400000233B6207F1140319461E4800F09EFC73
:101F50004FF440437B614FF44413BB610023FB61AA
:101F600007F114031946174800F090FC48F24003AB
:101F70007B610123BB610023FB6100233B6207F10E
:101F800014031946104800F081FC40F206437B61BF
:101F90000123BB610023FB6100233B6207F11403B3
:101FA00019460A4800F072FC00220021282000F0A7
:101FB00036FC282000F04FFC00BF2837BD4680BD0E
:101FC00000380240000802400000024000040240C5
:101FD00080B500AF00F0B2FA00F00CF8FFF754FF44
:101FE00000F0C6F906F076FEFFF7D8FAFFF710FB0F
:101FF000FCE7000080B594B000AF07F12003302269
:102000000021184609F057FA07F10C0300221A6064
:102010005A609A60DA601A610023BB60274B1B6C20
:10202000264A43F080531364244B1B6C03F0805307
:10203000BB60BB6800237B60214B1B68204A43F4D4
:10204000404313601E4B1B6803F440437B607B6876
:1020500001233B624FF480337B620223BB634FF466
:102060008003FB630C233B6445237B640223BB6436
:102070000323FB6407F12003184602F027F8034608
:10208000002B01D000F01EF80F23FB6002233B6100
:1020900000237B614FF48053BB610023FB6107F198
:1020A0000C030221184602F089FA0346002B01D0E6
:1020B00000F008F800BF5037BD4680BD0038024030
:1020C0000070004080B400AF72B600BF00BFFDE7F3
:1020D00080B483B000AF00237B60104B5B6C0F4A71
:1020E00043F4804353640D4B5B6C03F480437B608B
:1020F0007B6800233B60094B1B6C084A43F080530C
:102100001364064B1B6C03F080533B603B6800BFBD
:102110000C37BD465DF8047B704700BF00380240B5
:1021200080B400AF00BFFDE780B400AF00BFFDE7A3
:1021300080B400AF00BFFDE780B400AF00BFFDE793
:1021400080B400AF00BFFDE780B400AF00BFBD4664
:102150005DF8047B704780B400AF00BFBD465DF8FA
:10216000047B704780B400AF00BFBD465DF8047BC0
:10217000704780B500AF00F033FA00BF80BD0000AB
:1021800080B500AF024802F0ABFD00BF80BD00BFCC
:10219000DC03002080B500AF4FF4804000F02CFD40
:1021A0004FF4004000F028FD00BF80BD80B500AFB7
:1021B000024800F07DFE00BF80BD00BF081900206E
:1021C00080B400AF01231846BD465DF8047B70471C
:1021D00080B582B000AF7860396009F03FFA0346FD
:1021E00016221A604FF0FF3318460837BD4680BDEF
:1021F00080B582B000AF78604FF0FF317868FFF7AC
:10220000E7FF00BFFDE780B586B000AFF860B960BA
:102210007A6000237B610AE0AFF300800146BB686F
:102220005A1CBA60CAB21A707B6901337B617A6941
:102230007B689A42F0DB7B6818461837BD4680BD44
:1022400080B586B000AFF860B9607A6000237B612A
:1022500009E0BB685A1CBA601B781846AFF30080CF
:102260007B6901337B617A697B689A42F1DB7B6829
:1022700018461837BD4680BD80B483B000AF786083
:102280004FF0FF3318460C37BD465DF8047B7047AE
:1022900080B483B000AF786039603B684FF400527F
:1022A0005A60002318460C37BD465DF8047B704722
:1022B00080B483B000AF7860012318460C37BD4668
:1022C0005DF8047B704780B485B000AFF860B960FA
:1022D0007A60002318461437BD465DF8047B7047CA
:1022E00080B586B000AF7860144A154BD31A7B6175
:1022F0007B693B61134B1B68002B02D1114B124AC7
:102300001A60104B1A687B6813443A699A4207D2E4
:1023100009F0A4F903460C221A604FF0FF3309E0DC
:10232000084B1B68FB60074B1A687B681344054A1F
:102330001360FB6818461837BD4680BD00000220B8
:1023400000040000D80300205821002080B400AF12
:10235000064BD3F88830054A43F47003C2F888303E
:1023600000BFBD465DF8047B704700BF00ED00E094
:1023700080B58AB000AF07F1200300221A605A60CE
:102380003B1D00221A605A609A60DA601A615A6135
:102390009A61224B224A1A60204B0F225A601F4B2F
:1023A00000229A601D4B4FF6FF72DA601B4B002231
:1023B0001A611A4B80229A61184802F02DFB0346DD
:1023C000002B01D0FFF77EFE00233B6200237B62DF
:1023D00007F120031946114803F0BCF80346002B0F
:1023E00001D0FFF76FFE60237B600023BB600023FA
:1023F000FB6000237B613B1D08221946074802F061
:102400005FFD0346002B01D0FFF75CFE034800F0A0
:1024100031F800BF2837BD4680BD00BFDC03002077
:102420000004004080B584B000AF78607B681B6812
:102430000E4A934215D10023FB600D4B1B6C0C4AD6
:1024400043F0020313640A4B1B6C03F00203FB60AE
:10245000FB68002200211D2000F0E1F91D2000F0A2
:10246000FAF900BF1037BD4680BD00BF0004004030
:102470000038024080B588B000AF786007F10C03E7
:1024800000221A605A609A60DA601A617B681B68E1
:10249000124A93421DD10023BB60114B1B6B104AA3
:1024A00043F0020313630E4B1B6B03F00203BB608C
:1024B000BB680123FB6002233B6100237B61002397
:1024C000BB610223FB6107F10C031946054800F0CC
:1024D000DDF900BF2037BD4680BD00BF00040040CD
:1024E0000038024000040240DFF834D0FFF72EFF2E
:1024F0000C480D490D4A002302E0D458C45004335F
:10250000C4188C42F9D30A4A0A4C002301E0136034
:102510000432A242FBD309F0A7F8FFF759FD704738
:102520000000022000000020C4020020A0E60008F5
:10253000C402002058210020FEE7000080B500AF53
:102540000E4B1B680D4A43F4007313600B4B1B6862
:102550000A4A43F480631360084B1B68074A43F43C
:1025600080731360032000F04FF90F2000F008F88B
:10257000FFF7AEFD0023184680BD00BF003C0240BF
:1025800080B582B000AF7860124B1A68124B1B788E
:1025900019464FF47A73B3FBF1F3B2FBF3F3184629
:1025A00000F067F90346002B01D001230EE07B68A1
:1025B0000F2B0AD8002279684FF0FF3000F02FF976
:1025C000064A7B681360002300E0012318460837A1
:1025D000BD4680BD0000002008000020040000204F
:1025E00080B400AF064B1B781A46064B1B68134499
:1025F000044A136000BFBD465DF8047B704700BF0E
:10260000080000202404002080B400AF034B1B68A6
:102610001846BD465DF8047B704700BF24040020C7
:1026200080B584B000AF7860FFF7EEFFB8607B68DC
:10263000FB60FB68B3F1FF3F05D00A4B1B781A46DD
:10264000FB681344FB6000BFFFF7DEFF0246BB6878
:10265000D31AFA689A42F7D800BF00BF1037BD46B8
:1026600080BD00BF0800002080B485B000AF786056
:102670007B6803F00703FB600C4BDB68BB60BA6848
:102680004FF6FF031340BB60FB681A02BB6813439D
:1026900043F0BF6343F40033BB60044ABB68D360BC
:1026A00000BF1437BD465DF8047B704700ED00E0C5
:1026B00080B400AF044BDB681B0A03F00703184625
:1026C000BD465DF8047B704700ED00E080B483B048
:1026D00000AF0346FB7197F90730002B0BDBFB794A
:1026E00003F01F02074997F907305B09012000FA40
:1026F00002F241F8232000BF0C37BD465DF8047B91
:10270000704700BF00E100E080B483B000AF034633
:102710003960FB7197F90730002B0ADB3B68DAB2AE
:102720000C4997F907301201D2B20B4483F8002309
:102730000AE03B68DAB20849FB7903F00F03043B77
:102740001201D2B20B441A7600BF0C37BD465DF8B9
:10275000047B704700E100E000ED00E080B489B048
:1027600000AFF860B9607A60FB6803F00703FB61B3
:10277000FB69C3F10703042B28BF0423BB61FB697A
:102780000433062B02D9FB69033B00E000237B6185
:102790004FF0FF32BB6902FA03F3DA43BB681A4019
:1027A0007B699A404FF0FF317B6901FA03F3D9430B
:1027B0007B680B40134318462437BD465DF8047B05
:1027C0007047000080B582B000AF78607B68013B45
:1027D000B3F1807F01D301230FE00A4A7B68013BFC
:1027E00053600F214FF0FF30FFF78EFF054B0022A3
:1027F0009A60044B07221A60002318460837BD462A
:1028000080BD00BF10E000E080B582B000AF78600E
:102810007868FFF729FF00BF0837BD4680BD80B547
:1028200086B000AF0346B9607A60FB7300237B611A
:10283000FFF73EFF78617A68B9687869FFF78EFF25
:10284000024697F90F3011461846FFF75DFF00BFAB
:102850001837BD4680BD80B582B000AF0346FB711E
:1028600097F907301846FFF731FF00BF0837BD461C
:1028700080BD80B582B000AF78607868FFF7A2FFB6
:10288000034618460837BD4680BD000080B489B0B5
:1028900000AF7860396000237B6100233B61002337
:1028A000BB610023FB6159E10122FB6902FA03F3DA
:1028B0007B613B681B687A6913403B613A697B69BD
:1028C0009A4240F048813B685B6803F00303012BA8
:1028D00005D03B685B6803F00303022B30D17B68B3
:1028E0009B68BB61FB695B00032202FA03F3DB43D5
:1028F000BA691340BB613B68DA68FB695B0002FAA6
:1029000003F3BA691343BB617B68BA699A607B6859
:102910005B68BB610122FB6902FA03F3DB43BA691E
:102920001340BB613B685B681B0903F00102FB6954
:1029300002FA03F3BA691343BB617B68BA695A6050
:102940003B685B6803F00303032B17D07B68DB68ED
:10295000BB61FB695B00032202FA03F3DB43BA6944
:102960001340BB613B689A68FB695B0002FA03F3A2
:10297000BA691343BB617B68BA69DA603B685B681C
:1029800003F00303022B23D1FB69DA087B680832CA
:1029900053F82230BB61FB6903F007039B000F2251
:1029A00002FA03F3DB43BA691340BB613B681A695F
:1029B000FB6903F007039B0002FA03F3BA691343B0
:1029C000BB61FB69DA087B680832B96943F82210F9
:1029D0007B681B68BB61FB695B00032202FA03F39F
:1029E000DB43BA691340BB613B685B6803F00302D9
:1029F000FB695B0002FA03F3BA691343BB617B68AE
:102A0000BA691A603B685B6803F44033002B00F03E
:102A1000A2800023FB60574B5B6C564A43F4804313
:102A20005364544B5B6C03F48043FB60FB68524A75
:102A3000FB699B08023352F82330BB61FB6903F04A
:102A400003039B000F2202FA03F3DB43BA6913402E
:102A5000BB617B68494A934219D07B68484A9342DC
:102A600013D07B68474A93420DD07B68464A934215
:102A700007D07B68454A934201D1042308E007232D
:102A800006E0032304E0022302E0012300E0002328
:102A9000FA6902F0030292009340BA691343BB61E2
:102AA0003549FB699B080233BA6941F82320384B4A
:102AB0009B68BB613B69DB43BA691340BB613B6800
:102AC0005B6803F48013002B03D0BA693B6913439E
:102AD000BB612F4ABB6993602D4BDB68BB613B69CF
:102AE000DB43BA691340BB613B685B6803F40013C6
:102AF000002B03D0BA693B691343BB61244ABB690D
:102B0000D360234B5B68BB613B69DB43BA6913400D
:102B1000BB613B685B6803F40033002B03D0BA69E8
:102B20003B691343BB611A4ABB695360184B1B686E
:102B3000BB613B69DB43BA691340BB613B685B68BF
:102B400003F48033002B03D0BA693B691343BB61A4
:102B50000F4ABB691360FB690133FB61FB690F2BF3
:102B60007FF6A2AE00BF00BF2437BD465DF8047BF0
:102B7000704700BF003802400038014000000240AA
:102B80000004024000080240000C02400010024015
:102B9000003C014080B485B000AF78600B467B807C
:102BA0007B681A697B881340002B02D00123FB73DA
:102BB00001E00023FB73FB7B18461437BD465DF82C
:102BC000047B704780B483B000AF78600B467B8095
:102BD00013467B707B78002B03D07A887B689A61E0
:102BE00003E07B881A047B689A6100BF0C37BD46FE
:102BF0005DF8047B7047000080B582B000AF0346EB
:102C0000FB80084B5A69FB881340002B06D0054A0D
:102C1000FB885361FB881846FEF760FA00BF08374F
:102C2000BD4680BD003C014080B586B002AF7860F3
:102C30007B68002B01D1012301E17B681B68BB602D
:102C40007B6893F89534DBB2002B06D17B680022B9
:102C500083F89424786806F04FFA7B68032283F89F
:102C60009524BB68B3F1A04F02D17B6800229A7112
:102C70007B681B68184602F006FE7B6818687B6854
:102C80001A7C8DF8002004330ECB02F0E5FC0346DD
:102C9000002B05D07B68022283F895240123CEE027
:102CA0007B681B680021184602F0FEFD0346002BDE
:102CB00005D07B68022283F895240123BFE000231E
:102CC000FB734AE0FA7B79681346DB0013449B00F0
:102CD0000B44153301221A70FA7B79681346DB0026
:102CE00013449B000B441433FA7B1A70FA7BFB7B72
:102CF00098B279681346DB0013449B000B442E33D3
:102D000002461A80FA7B79681346DB0013449B0065
:102D10000B44183300221A70FA7B79681346DB00E3
:102D200013449B000B441C3300221A60FA7B796821
:102D30001346DB0013449B000B44203300221A602F
:102D4000FA7B79681346DB0013449B000B44243361
:102D500000221A60FB7B0133FB737B681B79FA7BD3
:102D60009A42AFD30023FB7344E0FA7B79681346A1
:102D7000DB0013449B000B4403F2552300221A701E
:102D8000FA7B79681346DB0013449B000B4403F580
:102D90001573FA7B1A70FA7B79681346DB001344CB
:102DA0009B000B4403F5167300221A70FA7B7968B6
:102DB0001346DB0013449B000B4403F517730022FA
:102DC0001A60FA7B79681346DB0013449B000B44BE
:102DD00003F5187300221A60FA7B79681346DB004A
:102DE00013449B000B4403F5197300221A60FB7B0C
:102DF0000133FB737B681B79FA7B9A42B5D37B68FE
:102E000018687B681A7C8DF8002004330ECB02F022
:102E100097FD0346002B05D07B68022283F895249A
:102E200001230CE07B6800225A747B68012283F83E
:102E300095247B681B68184603F0E1FD00231846C3
:102E40001037BD4680BD80B584B000AF78607B6828
:102E50001B68FB607B6893F89434012B01D102233B
:102E600022E07B68012283F89424FB68DB6803F08E
:102E70004003002B09D07B685B7B012B05D1FB68ED
:102E80009B6B43F48032FB689A637B681B6818462F
:102E900002F0E8FC7B681B68184603F08FFD7B6836
:102EA000002283F89424002318461037BD4680BDC5
:102EB00090B58DB000AF78607B681B683B623B6A61
:102EC000FB617B681B68184603F04DFE0346002B30
:102ED00040F08C847B681B68184603F0B1FD034604
:102EE000002B00F08284FB6903F500639B681B0ADA
:102EF000C3F30D027B68C3F8D4247B681B681846B3
:102F000003F09EFD034603F00203022B07D17B680A
:102F10001B685A697B681B6802F002025A617B6871
:102F20001B68184603F08CFD034603F01003102BBA
:102F300061D17B681B689A697B681B6822F010026C
:102F40009A613B6A1B6ABB61BB6903F00F021346BF
:102F5000DB0013449B0003F514737A6813440433B5
:102F60007B61BB6903F4F013B3F5802F24D1BA69F8
:102F700047F6F0731340002B35D07B69D968BB69E5
:102F80001B099BB2C3F30A039BB21A46386A03F0CB
:102F9000C3FB7B69DA68BB691B09C3F30A031A44E4
:102FA0007B69DA607B695A69BB691B09C3F30A0351
:102FB0001A447B695A6116E0BB6903F4F013B3F558
:102FC000402F10D17B6803F29C4308221946386ACF
:102FD00003F0A2FB7B695A69BB691B09C3F30A03AF
:102FE0001A447B695A617B681B689A697B681B6815
:102FF00042F010029A617B681B68184603F020FDBE
:10300000034603F40023B3F5002F40F0A78000230C
:103010007B627B681B68184603F025FDB86299E067
:10302000BB6A03F00103002B00F08E807B681B68F5
:103030007A6AD2B21146184603F049FD38613B69FD
:1030400003F00103002B0CD07B6A5A01FB69134487
:1030500003F530631A4601239360796A786800F0BB
:10306000A3FE3B6903F00803002B0CD07B6A5A01D6
:10307000FB69134403F530631A4608239360796AA9
:10308000786800F079FF3B6903F01003002B08D04B
:103090007B6A5A01FB69134403F530631A46102317
:1030A00093603B6903F00203002B30D03B6A5B69FD
:1030B00003F08003802B09D1FB6903F500635B6893
:1030C000FA6902F5006243F4806353607A6A13463A
:1030D000DB0013449B0003F514737A681344043334
:1030E0007B617B69DB78012B08D17B690022DA7078
:1030F0007B6ADBB21946786806F0FAF87B6A5A01F7
:10310000FB69134403F530631A46022393603B695D
:1031100003F02003002B08D07B6A5A01FB6913449B
:1031200003F530631A46202393603B6903F4005390
:10313000002B09D07B6A5A01FB69134403F5306305
:103140001A464FF4005393607B6A01337B62BB6A7B
:103150005B08BB62BB6A002B7FF462AF7B681B68B5
:10316000184603F06DFC034603F48023B3F5802F6B
:1031700040F0DB807B681B68184603F08EFCB86269
:1031800000237B62CDE0BB6A03F00103002B00F05B
:10319000C2807B681B687A6AD2B21146184603F077
:1031A000B4FC38613B6903F00103002B57D07B6A04
:1031B00003F00F03012202FA03F3FB60FB6903F53E
:1031C00000635A6BFB68DB43F96901F5006113404A
:1031D0004B637B6A5A01FB69134403F510631A467B
:1031E000012393607B689B79012B32D179687A6ADD
:1031F0001346DB0013449B000B44203319687868A6
:103200007A6A1346DB0013449B0003441C331B689B
:10321000194478687A6A1346DB0013449B00034420
:10322000203319607B6A002B13D179687A6A1346C0
:10323000DB0013449B000B4424331B68002B08D194
:103240007B6818687B6803F29C431A46012103F0EF
:10325000BBFC7B6ADBB21946786805F0CEFF3B69A0
:1032600003F00803002B08D07B6A5A01FB69134462
:1032700003F510631A46082393603B6903F01003BB
:10328000002B08D07B6A5A01FB69134403F51063D5
:103290001A46102393603B6903F04003002B08D0CB
:1032A0007B6A5A01FB69134403F510631A464023F5
:1032B00093603B6903F00203002B23D0796A386ADC
:1032C00002F0A2FC7A6A1346DB0013449B00103321
:1032D0007A68134404337B617B69DB78012B08D166
:1032E0007B690022DA707B6ADBB21946786806F0E7
:1032F00011F87B6A5A01FB69134403F510631A46FF
:10330000022393603B6903F08003002B03D0796AAA
:10331000786800F0BDFC7B6A01337B62BB6A5B08A6
:10332000BB62BB6A002B7FF42EAF7B681B6818461C
:1033300003F086FB034603F00043B3F1004F22D1B4
:10334000FB6903F500635B68FA6902F5006223F02C
:10335000010353607B6893F8CC34012B08D17B6860
:10336000002283F8CC240021786800F0A3FE02E05C
:10337000786805F0AFFF7B681B685A697B681B683B
:1033800002F000425A617B681B68184603F058FB44
:10339000034603F40063B3F5006F12D1FB6903F534
:1033A00000639B6803F00103012B02D1786805F0EC
:1033B0006BFF7B681B685A697B681B6802F40062BC
:1033C0005A617B681B68184603F03AFB034603F416
:1033D0008053B3F5805F40F0B780FB6903F500636D
:1033E0005B68FA6902F5006223F0010353607B68B1
:1033F0001B681021184602F007FC0023FB6246E020
:10340000FB6A5A01FB69134403F510631A464FF631
:103410007F339360FB6A5A01FB69134403F5106321
:103420001B68FA6A5101FA690A4402F5106223F432
:1034300000131360FB6A5A01FB69134403F5306300
:103440001A464FF67F339360FB6A5A01FB691344B7
:1034500003F530631B68FA6A5101FA690A4402F500
:10346000306223F400131360FB6A5A01FB691344B2
:1034700003F530631B68FA6A5101FA690A4402F5E0
:10348000306243F000631360FB6A0133FB627B68C8
:103490001B791A46FB6A9342B2D3FB6903F50063BA
:1034A000DB69FA6902F5006243F00113D3617B68BE
:1034B000DB7B002B16D0FB6903F50063D3F8843067
:1034C000FA6902F5006243F00B03C2F88430FB692D
:1034D00003F500635B6CFA6902F5006243F00B03CD
:1034E000536415E0FB6903F500635B69FA6902F553
:1034F000006243F4005343F02B035361FB6903F56F
:1035000000631B69FA6902F5006243F00B03136163
:10351000FB6903F500631B68FA6902F5006223F496
:10352000FE6313607B6818687B6899797B6803F297
:103530009C431A4603F048FB7B681B685A697B680A
:103540001B6802F480525A617B681B68184603F0BE
:1035500077FA034603F40053B3F5005F23D17B6889
:103560001B68184603F00DFB7B681B68184602F0C9
:10357000C4FB03461A467B68DA717B681C6801F05D
:10358000C9F901467B68DB791A46204602F0C8F883
:10359000786805F05AFE7B681B685A697B681B686F
:1035A00002F400525A617B681B68184603F048FA1F
:1035B000034603F00803082B0AD1786805F037FEAC
:1035C0007B681B685A697B681B6802F008025A61B5
:1035D0007B681B68184603F033FA034603F0800348
:1035E000802B23D13B6A9B6923F080023B6A9A615E
:1035F00001237B6214E079687A6A1346DB00134486
:103600009B000B4403F257231B78012B05D17B6AE7
:10361000DBB21946786800F00AFB7B6A01337B62F3
:103620007B681B791A467B6A9342E4D37B681B68EC
:10363000184603F005FA034603F48013B3F5801F20
:103640003CD101237B622BE07B6A5A01FB69134466
:1036500003F510631B68BB6179687A6A1346DB0067
:1036600013449B000B4418331B78012B15D1BB6905
:10367000002B12DA79687A6A1346DB0013449B0048
:103680000B44173301221A707B6ADBB263F07F03AD
:10369000DBB21946786800F0CAFA7B6A01337B62B4
:1036A0007B681B791A467B6A9342CDD37B681B6883
:1036B0005A697B681B6802F480125A617B681B6838
:1036C000184603F0BDF9034603F40013B3F5001FD9
:1036D00056D101237B6245E07B6A5A01FB691344A2
:1036E00003F530631B68BB6179687A6A1346DB00B7
:1036F00013449B000B4403F516731B78012B2ED14A
:10370000BB69002B2BDABB691A0C7B68D3F8D43465
:10371000534003F00103002B21D179687A6A1346E4
:10372000DB0013449B000B4403F2572301221A7061
:103730003B6A9B6943F080023B6A9A613B6A5B6922
:1037400003F08003002B0AD1FB6903F500635B687B
:10375000FA6902F5006243F40073536008E07B6A83
:1037600001337B627B681B791A467B6A9342B3D331
:103770007B681B685A697B681B6802F400125A61F7
:103780007B681B68184603F05BF9034603F080432F
:10379000B3F1804F0AD1786805F0CEFD7B681B68D5
:1037A0005A697B681B6802F080425A617B681B681B
:1037B000184603F045F9034603F00403042B15D122
:1037C0007B681B685B68BB61BB6903F00403002B6B
:1037D00002D0786805F0BEFD7B681B6859687B687D
:1037E0001B68BA690A435A6000E000BF3437BD461F
:1037F00090BD80B582B000AF78600B46FB707B68EF
:1038000093F89434012B01D1022312E07B6801224A
:1038100083F894247B68FA785A747B681B68FA787A
:103820001146184603F0A4F87B68002283F894241C
:10383000002318460837BD4680BD80B584B000AF70
:103840007860084611461A460346FB700B463B80DB
:103850001346BB700023FB7297F90330002B0FDA7D
:10386000FB7803F00F021346DB0013449B00103378
:103870007A6813440433FB60FB6801225A700FE03E
:10388000FB7803F00F021346DB0013449B0003F5A3
:1038900014737A6813440433FB60FB6800225A7087
:1038A000FB7803F00F03DAB2FB681A703B88C3F3AE
:1038B0000A02FB689A60FB68BA781A71FB685B7849
:1038C000002B04D0FB681B781A46FB685A83BB7830
:1038D000022B02D1FB6800225A717B6893F8943462
:1038E000012B01D102230EE07B68012283F894248E
:1038F0007B681B68F968184602F024FA7B6800228E
:1039000083F89424FB7A18461037BD4680BD80B5F5
:1039100084B000AF78600B46FB7097F90330002B42
:103920000FDAFB7803F00F021346DB0013449B0011
:1039300010337A6813440433FB60FB6801225A7029
:103940000FE0FB7803F00F021346DB0013449B00EB
:1039500003F514737A6813440433FB60FB68002298
:103960005A70FB7803F00F03DAB2FB681A707B68B9
:1039700093F89434012B01D102230EE07B680122DD
:1039800083F894247B681B68F968184602F062FA91
:103990007B68002283F89424002318461037BD4624
:1039A00080BD80B586B000AFF8607A603B600B46A2
:1039B000FB72FB7A03F00F021346DB0013449B00FB
:1039C00003F51473FA68134404337B617B697A68E6
:1039D000DA607B693A681A617B6900225A617B6907
:1039E00000225A70FB7A03F00F03DAB27B691A7077
:1039F000FB689B79012B02D17A687B69DA61FB68ED
:103A00001868FB689B791A46796902F0FFFA00236F
:103A100018461837BD4680BD80B483B000AF7860CB
:103A20000B46FB70FB7803F00F0279681346DB004E
:103A300013449B000B4403F51A731B6818460C379C
:103A4000BD465DF8047B704780B586B000AFF86076
:103A50007A603B600B46FB72FB7A03F00F02134661
:103A6000DB0013449B001033FA68134404337B617A
:103A70007B697A68DA607B693A681A617B6900223F
:103A80005A617B6901225A70FB7A03F00F03DAB2A4
:103A90007B691A70FB689B79012B02D17A687B697C
:103AA000DA61FB681868FB689B791A46796902F04D
:103AB000ADFA002318461837BD4680BD80B584B0E6
:103AC00000AF78600B46FB70FB7803F00F037A6859
:103AD0001279934201D901234FE097F90330002B6B
:103AE0000FDAFB7803F00F021346DB0013449B0050
:103AF00010337A6813440433FB60FB6801225A7068
:103B00000DE0FA781346DB0013449B0003F51473B1
:103B10007A6813440433FB60FB6800225A70FB6828
:103B200001229A70FB7803F00F03DAB2FB681A7077
:103B30007B6893F89434012B01D102231DE07B684C
:103B4000012283F894247B681B68F968184602F008
:103B50003BFEFB7803F00F03002B09D17B6818684C
:103B60007B6899797B6803F29C431A4603F02CF832
:103B70007B68002283F89424002318461037BD4642
:103B800080BD80B584B000AF78600B46FB70FB78D9
:103B900003F00F037A681279934201D9012342E0BE
:103BA00097F90330002B0FDAFB7803F00F0213466E
:103BB000DB0013449B0010337A6813440433FB602A
:103BC000FB6801225A700FE0FB7803F00F021346E6
:103BD000DB0013449B0003F514737A681344043329
:103BE000FB60FB6800225A70FB6800229A70FB7829
:103BF00003F00F03DAB2FB681A707B6893F8943411
:103C0000012B01D102230EE07B68012283F894246A
:103C10007B681B68F968184602F044FE7B68002246
:103C200083F89424002318461037BD4680BD80B524
:103C300084B000AF78600B46FB7097F90330002B1F
:103C40000CDAFB7803F00F021346DB0013449B00F1
:103C500010337A6813440433FB600CE0FB7803F004
:103C60000F021346DB0013449B0003F514737A68BC
:103C700013440433FB607B681B68F968184602F044
:103C800063FC0346FB72FB7A18461037BD4680BDC5
:103C900080B58AB002AF786039607B681B687B6151
:103CA0007B693B613A681346DB0013449B00103389
:103CB0007A6813440433FB60FB685A69FB681B692C
:103CC0009A4201D901236BE0FB681A69FB685B69C2
:103CD000D31AFB61FB689B68FA699A4202D9FB68B8
:103CE0009B68FB61FB6903339B08BB612AE0FB68AF
:103CF0001A69FB685B69D31AFB61FB689B68FA6908
:103D00009A4202D9FB689B68FB61FB6903339B08FD
:103D1000BB61FB68D9683B68DAB2FB6998B27B6823
:103D20009B7900930346786902F0B8FCFB68DA6877
:103D3000FB691A44FB68DA60FB685A69FB691A443C
:103D4000FB685A613B685A013B69134403F51063F1
:103D50009B699BB2BA699A4209D8FB685A69FB68A9
:103D60001B699A4203D2FB681B69002BBFD1FB6819
:103D70001A69FB685B699A4211D83B6803F00F032C
:103D8000012202FA03F3BB603B6903F500635A6B3F
:103D9000BB68DB43396901F5006113404B630023C5
:103DA00018462037BD4680BD80B588B000AF78602A
:103DB00039607B681B68FB61FB69BB61FB693C3355
:103DC00004331B687B613B685A01BB69134403F5EC
:103DD00030639B683B617B689B79012B7BD13B699E
:103DE00003F00803002B15D07B69614A934240F22F
:103DF000B9803B6903F40043002B00F0B3803B68BB
:103E00005A01BB69134403F530631A464FF400436B
:103E10009360A7E03B6903F02003002B09D03B68C7
:103E20005A01BB69134403F530631A46202393609B
:103E300098E03B6903F02803002B40F093807B69F6
:103E40004B4A93420FD93B6903F40043002B0AD03D
:103E50003B685A01BB69134403F530631A464FF4BB
:103E6000004393607EE03A681346DB0013449B00F6
:103E700003F514737A6813440433FB60FB681A6A11
:103E80003B685901BB690B4403F530631B69C3F3FD
:103E90001203D21AFB685A613B68002B14D1FB68ED
:103EA0001B69002B09D17B6818687B6803F29C436F
:103EB0001A46012102F088FE06E0FB68DA68FB681A
:103EC0005B691A44FB68DA603B68DBB219467868C4
:103ED00005F078F946E07B69264A934224D13B6994
:103EE00003F40043002B0AD03B685A01BB6913441A
:103EF00003F530631A464FF40043936032E03B69A8
:103F000003F02003002B08D03B685A01BB6913441F
:103F100003F530631A46202393603B68DBB21946F1
:103F2000786805F04FF91DE03B68002B14D17968E3
:103F30003A681346DB0013449B000B4403F51973E6
:103F40001B68002B08D17B6818687B6803F29C43D0
:103F50001A46002102F038FE3B68DBB21946786849
:103F600005F030F9002318462037BD4680BD00BF5C
:103F70000A30544F0A31544F80B586B000AF786094
:103F800039607B681B687B617B693B617B693C3383
:103F900004331B68FB603B685A013B69134403F51B
:103FA00030639B68BB60FB68154A93420ED9BB68BF
:103FB00003F40043002B09D03B685A013B691344CA
:103FC00003F530631A464FF400439360786805F0B8
:103FD000E7F8FB680A4A93420CD97B689B79012B6E
:103FE00008D17B6818687B6803F29C431A4601215C
:103FF00002F0EAFD002318461837BD4680BD00BF19
:104000000A30544F80B485B000AF78600B46FB7027
:1040100013463B807B681B685B6ABB60FB78002BA8
:1040200007D13B8819047B681B68BA680A439A6207
:1040300028E07B681B689B6A1B0CBA681344BB6052
:104040000023FB730DE07B681A68FB7B40339B0009
:1040500013445B681B0CBA681344BB60FB7B0133E1
:10406000FB73FA7BFB78013B9A42ECD33B88180444
:104070007B681968FB78013BBA68024340339B00B8
:104080000B445A60002318461437BD465DF8047B84
:10409000704780B483B000AF78600B467B807B684C
:1040A0001B687A885A62002318460C37BD465DF8B3
:1040B000047B704780B483B000AF78600B46FB7020
:1040C00000BF0C37BD465DF8047B704780B586B0F5
:1040D00000AF78607B68002B01D1012367E27B6829
:1040E0001B6803F00103002B75D0884B9B6803F01D
:1040F0000C03042B0CD0854B9B6803F00C03082B9E
:1041000012D1824B5B6803F48003B3F5800F0BD1AF
:104110007E4B1B6803F40033002B5BD07B685B682D
:10412000002B57D1012342E27B685B68B3F5803FE7
:1041300006D1764B1B68754A43F4803313601DE04B
:104140007B685B68B3F5A02F0CD1704B1B686F4A7E
:1041500043F4802313606D4B1B686C4A43F4803337
:1041600013600BE0694B1B68684A23F480331360CB
:10417000664B1B68654A23F4802313607B685B6889
:10418000002B13D0FEF740FA386108E0FEF73CFA46
:1041900002463B69D31A642B01D9032307E25B4B28
:1041A0001B6803F40033002BF0D014E0FEF72CFA68
:1041B000386108E0FEF728FA02463B69D31A642BFF
:1041C00001D90323F3E1514B1B6803F40033002BA7
:1041D000F0D100E000BF7B681B6803F00203002BF6
:1041E00063D04A4B9B6803F00C03002B0BD0474B6A
:1041F0009B6803F00C03082B1CD1444B5B6803F451
:104200008003002B16D1414B1B6803F00203002BE7
:1042100005D07B68DB68012B01D00123C7E13B4B54
:104220001B6823F0F8027B681B69DB0037491343E6
:104230000B603AE07B68DB68002B20D0344B012216
:104240001A60FEF7E1F9386108E0FEF7DDF9024691
:104250003B69D31A022B01D90323A8E12B4B1B681E
:1042600003F00203002BF0D0284B1B6823F0F80268
:104270007B681B69DB00254913430B6015E0244B69
:1042800000221A60FEF7C0F9386108E0FEF7BCF9B9
:1042900002463B69D31A022B01D9032387E11B4B4A
:1042A0001B6803F00203002BF0D17B681B6803F04E
:1042B0000803002B36D07B685B69002B16D0154BAA
:1042C00001221A60FEF7A0F9386108E0FEF79CF9B8
:1042D00002463B69D31A022B01D9032367E10B4B3A
:1042E0005B6F03F00203002BF0D01BE0094B0022B0
:1042F0001A60FEF789F938610EE0FEF785F902468B
:104300003B69D31A022B07D9032350E1003802403E
:1043100000004742800E4742884B5B6F03F0020368
:10432000002BEAD17B681B6803F00403002B00F02C
:1043300097800023FB75814B1B6C03F08053002B8F
:104340000FD10023BB607D4B1B6C7C4A43F0805334
:1043500013647A4B1B6C03F08053BB60BB68012372
:10436000FB75774B1B6803F48073002B18D1744BDB
:104370001B68734A43F480731360FEF745F9386194
:1043800008E0FEF741F902463B69D31A022B01D936
:1043900003230CE16A4B1B6803F48073002BF0D0FD
:1043A0007B689B68012B06D1644B1B6F634A43F00B
:1043B000010313671CE07B689B68052B0CD15F4BE6
:1043C0001B6F5E4A43F0040313675C4B1B6F5B4A31
:1043D00043F0010313670BE0584B1B6F574A23F060
:1043E00001031367554B1B6F544A23F004031367F3
:1043F0007B689B68002B15D0FEF706F938610AE050
:10440000FEF702F902463B69D31A41F28832934221
:1044100001D90323CBE0494B1B6F03F00203002BB0
:10442000EED014E0FEF7F0F838610AE0FEF7ECF8A1
:1044300002463B69D31A41F28832934201D90323E1
:10444000B5E03E4B1B6F03F00203002BEED1FB7D6A
:10445000012B05D1394B1B6C384A23F08053136470
:104460007B689B69002B00F0A180344B9B6803F0B4
:104470000C03082B5CD07B689B69022B41D1314B2C
:1044800000221A60FEF7C0F8386108E0FEF7BCF8B9
:1044900002463B69D31A022B01D9032387E0274B3D
:1044A0001B6803F00073002BF0D17B68DA697B682E
:1044B0001B6A1A437B685B6A9B011A437B689B6A91
:1044C0005B08013B1B041A437B68DB6A1B061B4924
:1044D00013434B601B4B01221A60FEF795F83861BD
:1044E00008E0FEF791F802463B69D31A022B01D986
:1044F00003235CE0114B1B6803F00073002BF0D02A
:1045000054E0104B00221A60FEF77EF8386108E094
:10451000FEF77AF802463B69D31A022B01D903232E
:1045200045E0064B1B6803F00073002BF0D13DE023
:104530007B689B69012B07D1012338E000380240DA
:1045400000700040600047421B4B5B68FB607B686B
:104550009B69012B28D0FB6803F480027B68DB6930
:104560009A4221D1FB6803F03F027B681B6A9A42A2
:104570001AD1FA6847F6C07313407A68526A9201FA
:10458000934211D1FB6803F440327B689B6A5B085D
:10459000013B1B049A4207D1FB6803F070627B6801
:1045A000DB6A1B069A4201D0012300E00023184673
:1045B0001837BD4680BD00BF0038024080B584B0CA
:1045C00000AF786039607B68002B01D10123CCE01B
:1045D000684B1B6803F007033A689A420CD9654B95
:1045E0003A68D2B21A70634B1B6803F007033A684B
:1045F0009A4201D00123B8E07B681B6803F00203F4
:10460000002B20D07B681B6803F00403002B05D02F
:10461000594B9B68584A43F4E05393607B681B688E
:1046200003F00803002B05D0534B9B68524A43F418
:1046300060439360504B9B6823F0F0027B689B685B
:104640004D4913438B607B681B6803F00103002B0B
:1046500044D07B685B68012B07D1474B1B6803F490
:104660000033002B19D101237FE07B685B68022BAC
:1046700003D07B685B68032B07D13F4B1B6803F0BB
:104680000073002B09D101236FE03B4B1B6803F043
:104690000203002B01D1012367E0374B9B6823F015
:1046A00003027B685B68344913438B60FDF7ACFF02
:1046B000F8600AE0FDF7A8FF0246FB68D31A41F252
:1046C0008832934201D903234FE02B4B9B6803F0C0
:1046D0000C027B685B689B009A42EBD1254B1B6800
:1046E00003F007033A689A420CD2224B3A68D2B2DE
:1046F0001A70204B1B6803F007033A689A4201D0F6
:10470000012332E07B681B6803F00403002B08D010
:10471000194B9B6823F4E0527B68DB68164913430E
:104720008B607B681B6803F00803002B09D0124BD9
:104730009B6823F460427B681B69DB000E491343CE
:104740008B6000F021F802460B4B9B681B0903F0BD
:104750000F030A49CB5C22FA03F3094A1360094BA1
:104760001B681846FDF70CFF002318461037BD469E
:1047700080BD00BF003C024000380240F0E100086C
:1047800000000020040000202DE9B04F90B000AFE1
:1047900000237B630023FB6300233B630023BB6395
:1047A000594B9B6803F00C03082B0DD0082B00F22B
:1047B000A180002B02D0042B03D09BE0534BBB63A2
:1047C0009BE0534BBB6398E04F4B5B6803F03F03A8
:1047D0007B634D4B5B6803F48003002B28D04A4B6E
:1047E0005B689B0900223B627A623B6AC3F3080064
:1047F0000021474B03FB01F2002300FB03F31344AA
:10480000434AA0FB0212FA620A46BA62FA6A1344E9
:10481000FB627B6B0022BB61FA61D7E90623D7E913
:104820000A01FCF749FA02460B461346FB6353E0C4
:10483000354B5B689B0900223B617A613B69C3F39E
:10484000080A4FF0000B52465B464FF000004FF055
:104850000001590141EAD261500102460B46B2EB18
:104860000A0863EB0B094FF000024FF000034FEA18
:10487000891343EA98634FEA8812B2EB080463EBAA
:1048800009054FF000024FF00003EB0043EA5473B8
:10489000E20014461D4614EB0A033B6045EB0B0394
:1048A0007B604FF000024FF00003D7E90045294636
:1048B0008B02214643EA915321468A02104619464B
:1048C0007B6B0022BB60FA60D7E90223FCF7F4F9A6
:1048D00002460B461346FB630B4B5B681B0C03F055
:1048E000030301335B003B63FA6B3B6BB2FBF3F3F7
:1048F000BB6302E0054BBB6300BFBB6B1846403790
:10490000BD46BDE8B08F00BF003802400024F4006F
:1049100040787D0180B400AF034B1B681846BD464C
:104920005DF8047B704700BF0000002080B500AF39
:10493000FFF7F0FF0246054B9B689B0A03F0070355
:104940000349CB5C22FA03F3184680BD00380240CD
:1049500000E2000880B485B000AF78607B6893F80F
:104960003D30DBB2012B01D0012344E07B68022201
:1049700083F83D207B681B68DA687B681B6842F01F
:104980000102DA607B681B681E4A934218D07B687C
:104990001B68B3F1804F13D07B681B681A4A93429F
:1049A0000ED07B681B68194A934209D07B681B684C
:1049B000174A934204D07B681B68164A934211D170
:1049C0007B681B689B6803F00703FB60FB68062B92
:1049D00010D07B681B681A687B681B6842F0010274
:1049E0001A6007E07B681B681A687B681B6842F0E6
:1049F00001021A60002318461437BD465DF8047B97
:104A0000704700BF00000140000400400008004063
:104A1000000C00400040014080B582B000AF7860DB
:104A20007B68002B01D1012341E07B6893F83D3086
:104A3000DBB2002B06D17B68002283F83C2078682B
:104A4000FDF7F0FC7B68022283F83D207B681A6842
:104A50007B6804331946104600F044FB7B68012252
:104A600083F846207B68012283F83E207B68012280
:104A700083F83F207B68012283F840207B68012275
:104A800083F841207B68012283F842207B68012261
:104A900083F843207B68012283F844207B6801224D
:104AA00083F845207B68012283F83D2000231846C7
:104AB0000837BD4680BD000080B584B000AF786087
:104AC00039603B68002B09D17B6893F83E30DBB23C
:104AD000012B14BF01230023DBB222E03B68042B2F
:104AE00009D17B6893F83F30DBB2012B14BF01235F
:104AF0000023DBB215E03B68082B09D17B6893F8F3
:104B00004030DBB2012B14BF01230023DBB208E0ED
:104B10007B6893F84130DBB2012B14BF01230023E3
:104B2000DBB2002B01D0012368E03B68002B04D1ED
:104B30007B68022283F83E2013E03B68042B04D1FB
:104B40007B68022283F83F200BE03B68082B04D1EE
:104B50007B68022283F8402003E07B68022283F80E
:104B600041207B681B6801223968184600F0CCFCA4
:104B70007B681B68234A934207D17B681B685A6C89
:104B80007B681B6842F400425A647B681B681D4ABC
:104B9000934218D07B681B68B3F1804F13D07B68B9
:104BA0001B68194A93420ED07B681B68174A9342D0
:104BB00009D07B681B68164A934204D07B681B6847
:104BC000144A934211D17B681B689B6803F007036A
:104BD000FB60FB68062B10D07B681B681A687B683B
:104BE0001B6842F001021A6007E07B681B681A68C4
:104BF0007B681B6842F001021A60002318461037D8
:104C0000BD4680BD00000140000400400008004097
:104C1000000C00400040014080B582B000AF7860D9
:104C200039607B681B6800223968184600F06CFC0C
:104C30007B681B68294A934217D17B681B681A6AF4
:104C400041F211131340002B0FD17B681B681A6AC5
:104C500040F244431340002B07D17B681B685A6C19
:104C60007B681B6822F400425A647B681B681A6ADE
:104C700041F211131340002B0FD17B681B681A6A95
:104C800040F244431340002B07D17B681B681A682D
:104C90007B681B6822F001021A603B68002B04D17C
:104CA0007B68012283F83E2013E03B68042B04D18B
:104CB0007B68012283F83F200BE03B68082B04D17E
:104CC0007B68012283F8402003E07B68012283F89F
:104CD0004120002318460837BD4680BD0000014032
:104CE00080B584B000AF78607B681B68DB68FB60D0
:104CF0007B681B681B69BB60BB6803F00203002B69
:104D000020D0FB6803F00203002B1BD07B681B68DC
:104D10006FF002021A617B6801221A777B681B68B8
:104D20009B6903F00303002B03D0786800F0BBF904
:104D300005E0786800F0ADF9786800F0BEF97B68AE
:104D400000221A77BB6803F00403002B20D0FB6815
:104D500003F00403002B1BD07B681B686FF0040278
:104D60001A617B6802221A777B681B689B6903F4CF
:104D70004073002B03D0786800F095F905E078685F
:104D800000F087F9786800F098F97B6800221A77BC
:104D9000BB6803F00803002B20D0FB6803F0080376
:104DA000002B1BD07B681B686FF008021A617B68C0
:104DB00004221A777B681B68DB6903F00303002B6E
:104DC00003D0786800F06FF905E0786800F061F9C9
:104DD000786800F072F97B6800221A77BB6803F0EC
:104DE0001003002B20D0FB6803F01003002B1BD016
:104DF0007B681B686FF010021A617B6808221A77C3
:104E00007B681B68DB6903F44073002B03D0786870
:104E100000F049F905E0786800F03BF9786800F0A7
:104E20004CF97B6800221A77BB6803F00103002B62
:104E30000CD0FB6803F00103002B07D07B681B68D4
:104E40006FF001021A617868FCF728F9BB6803F07B
:104E50008003002B0CD0FB6803F08003002B07D0ED
:104E60007B681B686FF080021A61786800F0EAFBCB
:104E7000BB6803F04003002B0CD0FB6803F0400339
:104E8000002B07D07B681B686FF040021A617868BE
:104E900000F01DF9BB6803F02003002B0CD0FB6869
:104EA00003F02003002B07D07B681B686FF0200203
:104EB0001A61786800F0BCFB00BF1037BD4680BDAA
:104EC00080B586B000AFF860B9607A600023FB75EA
:104ED000FB6893F83C30012B01D10223AEE0FB6864
:104EE000012283F83C207B680C2B00F29F8001A2FA
:104EF00052F823F0294F00082D5000082D500008CB
:104F00002D500008694F00082D5000082D50000852
:104F10002D500008AB4F00082D5000082D50000800
:104F20002D500008EB4F0008FB681B68B968184655
:104F300000F05EF9FB681B689A69FB681B6842F029
:104F400008029A61FB681B689A69FB681B6822F07B
:104F500004029A61FB681B689969BB681A69FB685F
:104F60001B680A439A6164E0FB681B68B9681846CD
:104F700000F0A4F9FB681B689A69FB681B6842F49F
:104F800000629A61FB681B689A69FB681B6822F4DF
:104F900080629A61FB681B689969BB681B691A0289
:104FA000FB681B680A439A6143E0FB681B68B968A9
:104FB000184600F0EFF9FB681B68DA69FB681B68AC
:104FC00042F00802DA61FB681B68DA69FB681B685B
:104FD00022F00402DA61FB681B68D969BB681A69B0
:104FE000FB681B680A43DA6123E0FB681B68B96849
:104FF000184600F039FAFB681B68DA69FB681B6821
:1050000042F40062DA61FB681B68DA69FB681B68BE
:1050100022F48062DA61FB681B68D969BB681B698E
:105020001A02FB681B680A43DA6102E00123FB7580
:1050300000BFFB68002283F83C20FB7D1846183730
:10504000BD4680BD80B483B000AF786039607B68B6
:1050500093F83C30012B01D1022314E07B6801223C
:1050600083F83C207B68022283F83D207B681B6824
:105070003A685A617B68012283F83D207B680022F0
:1050800083F83C20002318460C37BD465DF8047BAE
:10509000704780B483B000AF786000BF0C37BD4666
:1050A0005DF8047B704780B483B000AF786000BFC8
:1050B0000C37BD465DF8047B704780B483B000AF09
:1050C000786000BF0C37BD465DF8047B704780B444
:1050D00083B000AF786000BF0C37BD465DF8047B3D
:1050E0007047000080B485B000AF786039607B689D
:1050F0001B68FB607B68374A93420FD07B68B3F133
:10510000804F0BD07B68344A934207D07B68334A88
:10511000934203D07B68324A934208D1FB6823F064
:105120007003FB603B685B68FA681343FB607B6855
:10513000284A93421BD07B68B3F1804F17D07B681D
:10514000254A934213D07B68244A93420FD07B6850
:10515000234A93420BD07B68224A934207D07B6854
:10516000214A934203D07B68204A934208D1FB68CE
:1051700023F44073FB603B68DB68FA681343FB6011
:10518000FB6823F080023B685B691343FB603B686C
:105190009A687B68DA623B681A687B689A627B6807
:1051A0000C4A934203D13B681A697B681A637B6897
:1051B0001B6843F004027B681A607B6801225A6115
:1051C0007B68FA681A6000BF1437BD465DF8047B3F
:1051D000704700BF0000014000040040000800408C
:1051E000000C0040004001400044014000480140E4
:1051F00080B487B000AF786039607B681B6A7B61E0
:105200007B681B6A23F001027B681A627B685B681B
:105210003B617B689B69FB60FB6823F07003FB606C
:10522000FB6823F00303FB603B681B68FA681343C9
:10523000FB607B6923F002037B613B689B687A69B2
:1052400013437B617B681C4A93420CD17B6923F03A
:1052500008037B613B68DB687A6913437B617B6988
:1052600023F004037B617B68134A934211D13B69AD
:1052700023F480733B613B6923F400733B613B681B
:105280005B693A6913433B613B689B693A69134325
:105290003B617B683A695A607B68FA689A613B684F
:1052A0005A687B685A637B687A691A6200BF1C3748
:1052B000BD465DF8047B70470000014080B487B0B4
:1052C00000AF786039607B681B6A7B617B681B6A12
:1052D00023F010027B681A627B685B683B617B6825
:1052E0009B69FB60FB6823F4E043FB60FB6823F4ED
:1052F0004073FB603B681B681B02FA681343FB604A
:105300007B6923F020037B613B689B681B017A6902
:1053100013437B617B681E4A93420DD17B6923F066
:1053200080037B613B68DB681B017A6913437B6107
:105330007B6923F040037B617B68154A934213D15C
:105340003B6923F480633B613B6923F400633B6169
:105350003B685B699B003A6913433B613B689B690F
:105360009B003A6913433B617B683A695A607B68EA
:10537000FA689A613B685A687B689A637B687A69C5
:105380001A6200BF1C37BD465DF8047B704700BF42
:105390000000014080B487B000AF786039607B685E
:1053A0001B6A7B617B681B6A23F480727B681A62CC
:1053B0007B685B683B617B68DB69FB60FB6823F0B3
:1053C0007003FB60FB6823F00303FB603B681B6812
:1053D000FA681343FB607B6923F400737B613B68CD
:1053E0009B681B027A6913437B617B681D4A934269
:1053F0000DD17B6923F400637B613B68DB681B0292
:105400007A6913437B617B6923F480637B617B68EA
:10541000144A934213D13B6923F480533B613B69A7
:1054200023F400533B613B685B691B013A691343FA
:105430003B613B689B691B013A6913433B617B6895
:105440003A695A607B68FA68DA613B685A687B6837
:10545000DA637B687A691A6200BF1C37BD465DF863
:10546000047B70470000014080B487B000AF7860D3
:1054700039607B681B6A3B617B681B6A23F480523E
:105480007B681A627B685B687B617B68DB69FB60B9
:10549000FB6823F4E043FB60FB6823F44073FB608C
:1054A0003B681B681B02FA681343FB603B6923F4EB
:1054B00000533B613B689B681B033A6913433B61A4
:1054C0007B68104A934209D17B6923F480437B6156
:1054D0003B685B699B017A6913437B617B687A69EE
:1054E0005A607B68FA68DA613B685A687B681A64BC
:1054F0007B683A691A6200BF1C37BD465DF8047BC1
:10550000704700BF0000014080B487B000AFF86072
:10551000B9607A60BB6803F01F03012202FA03F34B
:105520007B61FB681A6A7B69DB431A40FB681A627D
:10553000FB681A6ABB6803F01F03796801FA03F37A
:105540001A43FB681A6200BF1C37BD465DF8047B36
:105550007047000080B485B000AF786039607B6828
:1055600093F83C30012B01D1022350E07B680122EB
:1055700083F83C207B68022283F83D207B681B680F
:105580005B68FB607B681B689B68BB60FB6823F003
:105590007003FB603B681B68FA681343FB607B6821
:1055A0001B68FA685A607B681B681C4A934218D0D3
:1055B0007B681B68B3F1804F13D07B681B68184A67
:1055C00093420ED07B681B68164A934209D07B68D1
:1055D0001B68154A934204D07B681B68134A9342A8
:1055E0000CD1BB6823F08003BB603B685B68BA6882
:1055F0001343BB607B681B68BA689A607B680122B2
:1056000083F83D207B68002283F83C200023184665
:105610001437BD465DF8047B704700BF00000140B1
:105620000004004000080040000C00400040014021
:1056300080B483B000AF786000BF0C37BD465DF822
:10564000047B704780B483B000AF786000BF0C3734
:10565000BD465DF8047B704784B080B584B000AF70
:10566000786007F11C0080E80E0097F82130012BCC
:1056700023D17B689B6B23F480327B689A637B68C1
:10568000DB6823F4840323F040037A68D3607B68EB
:10569000DB6823F440127B68DA6097F82830012B2E
:1056A00005D17B68DB6843F480127B68DA60786838
:1056B00001F0E8FA0346FB731BE07B68DB6843F00C
:1056C00040027B68DA60786801F0DCFA0346FB731D
:1056D00097F82530002B06D17B689B6B43F4803212
:1056E0007B689A6305E07B689B6B23F480327B6860
:1056F0009A63BB7F012B0BD17B689B6843F006024A
:105700007B689A607B689B6843F020027B689A60A4
:10571000FB7B18461037BD46BDE8804004B070479B
:1057200080B487B000AFF860B9601346FB71FB79B5
:10573000022B65D1BB68414A934206D9BB68404AF7
:10574000934202D20F237B6162E0BB683C4A9342E2
:1057500006D3BB683B4A934202D20E237B6157E0DB
:10576000BB68384A934206D3BB68374A934202D299
:105770000D237B614CE0BB68334A934206D3BB6880
:10578000324A934202D80C237B6141E0BB682F4A26
:10579000934206D9BB682E4A934202D80B237B6101
:1057A00036E0BB682A4A934206D9BB68294A93422D
:1057B00002D80A237B612BE0BB68264A934206D9B4
:1057C000BB68254A934202D209237B6120E0BB6873
:1057D000214A934206D3BB68204A934202D8082349
:1057E0007B6115E0BB681D4A934206D9BB681C4A21
:1057F000934202D207237B610AE006237B6107E024
:10580000FB79002B02D109237B6101E009237B6135
:10581000FB68DB6823F47052FB68DA60FB68DA68C7
:105820007B699B0203F470531A43FB68DA60002320
:1058300018461C37BD465DF8047B7047BFACD800E6
:10584000C0E1E4000024F400807306019F491A01BE
:10585000FF2C31013FA44C0100366E011FABA601A5
:105860000048E80180B483B000AF78607B689B6833
:1058700043F001027B689A60002318460C37BD464E
:105880005DF8047B704780B483B000AF78607B68BC
:105890009B6823F001027B689A60002318460C374E
:1058A000BD465DF8047B704780B584B000AF78607A
:1058B0000B46FB700023FB607B68DB6823F0C04273
:1058C0007B68DA60FB78012B15D17B68DB6843F0DD
:1058D00000527B68DA600A20FCF7A2FEFB680A33FC
:1058E000FB60786801F03FF90346012B1ED0FB688E
:1058F000C72BF0D91AE0FB78002B15D17B68DB6849
:1059000043F080427B68DA600A20FCF789FEFB687E
:105910000A33FB60786801F026F90346002B05D0B6
:10592000FB68C72BF0D901E0012305E0FB68C82B19
:1059300001D1012300E0002318461037BD4680BD89
:1059400084B080B586B000AF786007F1240080E8AD
:105950000E000023FB757B68FB6000233B6109E0C0
:105960007A683B6940339B00134400225A603B69CC
:1059700001333B613B690E2BF2D997F82E30002B97
:105980001CD1FB6803F500635B68FA6802F50062EE
:1059900043F0020353607B689B6B43F400127B6807
:1059A0009A637B689B6B23F400227B689A637B6815
:1059B0009B6B23F480227B689A630BE07B689B6B74
:1059C00023F400127B689A637B689B6B43F400228C
:1059D0007B689A63FB6803F560631A4600231360D3
:1059E00097F82930012B0DD197F82730002B04D1DF
:1059F0000021786800F068F908E00121786800F07B
:105A000063F903E00321786800F05EF910217868FB
:105A100000F0FAF80346002B01D00123FB757868EB
:105A200000F024F90346002B01D00123FB75FB682D
:105A300003F500631A4600231361FB6803F5006356
:105A40001A4600235361FB6803F500631A460023DE
:105A5000D36100233B6143E03B695A01FB68134477
:105A600003F510631B6803F00043B3F1004F18D136
:105A70003B69002B0AD13B695A01FB68134403F5CB
:105A800010631A464FF00063136013E03B695A013C
:105A9000FB68134403F510631A464FF090431360FC
:105AA00008E03B695A01FB68134403F510631A468A
:105AB000002313603B695A01FB68134403F510632C
:105AC0001A46002313613B695A01FB68134403F52E
:105AD00010631A464FF67F3393603B6901333B6195
